:100000000C942A000C940E010C943C000C943C00BF
:100010000C943C000C94A2010C943C000C943C0009
:100020000C943C000C943C000C943C000C9461013A
:100030000C943C000C943C000C943C000C943C0050
:100040000C943C000C943C000C943C000C943C0040
:100050000C943C0011241FBECFE5D8E0DEBFCDBF1D
:1000600020E0A0E6B0E001C01D92A536B207E1F79E
:100070000E9422030C94E5040C9400008FB78F7744
:100080008FBF23C062E080E00E94E90160E080E071
:100090000E941D0261E080E00E941D0262E081E09A
:1000A0000E941D0260E081E00E94E90161E081E0C0
:1000B0000E941D0208B600FEFDCF88B7816088BF90
:1000C000809163008F5F809363008091630084312F
:1000D000C8F21092630083B78E7F83BF83B78D7F92
:1000E00083BF83B78B7F83BF62E081E00E941D02E4
:1000F00060E081E00E941D0261E081E00E941D023B
:1001000083E0809364008FB780688FBF08958FB7B6
:100110008F778FBF83B78E7F83BF83B78D7F83BF7A
:1001200083B78B7F83BF83B7816083BF83B78D7FA6
:1001300083BF83B7846083BF1092630025C080FDB6
:1001400018C062E080E00E941D0260E080E00E9432
:100150001D0261E080E00E94550262E081E00E94A1
:100160001D0260E081E00E941D0261E081E00E94CA
:10017000550208B600FEFDCF88B7816088BF809128
:1001800063008F5F80936300809163008431B8F2D5
:100190001092630023C062E080E00E94E90160E009
:1001A00080E00E941D0261E080E00E941D0262E08A
:1001B00081E00E941D0260E081E00E94E90161E0AF
:1001C00081E00E941D0208B600FEFDCF88B7816065
:1001D00088BF809163008F5F80936300809163008C
:1001E0008431C8F283B78E7F83BF83B78D7F83BF8F
:1001F00083B78B7F83BF62E081E00E941D0260E0D5
:1002000081E00E941D0261E081E00E941D0283E006
:10021000809364008FB780688FBF08951F920F92FC
:100220000FB60F9211242F933F934F935F936F93C9
:100230007F938F939F93AF93BF93EF93FF9380919F
:1002400061008F5F80936100813019F0823059F036
:1002500027C085B5816085BD85B5826085BD85B5C2
:10026000846085BD1DC080916000853060F4809100
:100270006400823031F010F0853028F40E9487004D
:1002800002C00E943E0085B58E7F85BD85B58D7FFD
:1002900085BD85B58B7F85BD109260001092610091
:1002A000FF91EF91BF91AF919F918F917F916F914E
:1002B0005F914F913F912F910F900FBE0F901F9024
:1002C00018951F920F920FB60F9211242F933F9300
:1002D0004F935F936F937F938F939F93AF93BF934E
:1002E000EF93FF9380916300843190F48CE082BFA0
:1002F000809163008F5F80936300909162009130E2
:1003000081F480FD0EC061E080E00E94550209C0CA
:1003100010926200809164008F5F8093640010925D
:100320006300FF91EF91BF91AF919F918F917F916A
:100330006F915F914F913F912F910F900FBE0F9052
:100340001F9018951F920F920FB60F9211248F9342
:100350008CE084BD809160008F5F809360008F91FE
:100360000F900FBE0F901F901895813089F028F0E4
:100370008230C9F0833011F108952AB381E090E012
:1003800002C0880F991F6A95E2F7822B8ABB0895F5
:1003900027B381E090E002C0880F991F6A95E2F7C9
:1003A000822B87BB089524B381E090E002C0880FC0
:1003B000991F6A95E2F7822B84BB089521B381E0EF
:1003C00090E002C0880F991F6A95E2F7822B81BBEB
:1003D0000895813089F028F08230C9F0833011F11E
:1003E00008952BB381E090E002C0880F991F6A95B1
:1003F000E2F7822B8BBB089528B381E090E002C026
:10040000880F991F6A95E2F7822B88BB089525B360
:1004100081E090E002C0880F991F6A95E2F7822B75
:1004200085BB089522B381E090E002C0880F991F38
:100430006A95E2F7822B82BB0895813091F028F013
:100440008230D9F0833029F108952BB381E090E018
:1004500002C0880F991F6A95E2F7809582238BBBB3
:10046000089528B381E090E002C0880F991F6A9533
:10047000E2F78095822388BB089525B381E090E060
:1004800002C0880F991F6A95E2F78095822385BB89
:10049000089522B381E090E002C0880F991F6A9509
:1004A000E2F78095822382BB0895813089F028F09D
:1004B0008230C9F0833011F108952BB381E090E0D0
:1004C00002C0880F991F6A95E2F782278BBB0895B7
:1004D00028B381E090E002C0880F991F6A95E2F787
:1004E000822788BB089525B381E090E002C0880F81
:1004F000991F6A95E2F7822785BB089522B381E0B0
:1005000090E002C0880F991F6A95E2F7822782BBAC
:100510000895813091F028F08230D9F0833029F1AC
:1005200008952AB381E090E002C0880F991F6A9570
:10053000E2F7809582238ABB089527B381E090E09B
:1005400002C0880F991F6A95E2F78095822387BBC6
:10055000089524B381E090E002C0880F991F6A9546
:10056000E2F78095822384BB089521B381E090E077
:1005700002C0880F991F6A95E2F78095822381BB9C
:1005800008958130E9F030F0823081F1833009F450
:1005900043C008957BB381E090E09C01062E02C029
:1005A000220F331F0A94E2F7872F90E082239323D0
:1005B00002C0959587956A95E2F7FA0180830895C0
:1005C00078B381E090E09C01062E02C0220F331F19
:1005D0000A94E2F7872F90E08223932302C0959537
:1005E00087956A95E2F7FA018083089575B381E0F3
:1005F00090E09C01062E02C0220F331F0A94E2F7FE
:10060000872F90E08223932302C0959587956A9562
:10061000E2F7FA018083089572B381E090E09C01D3
:10062000062E02C0220F331F0A94E2F7872F90E0B4
:100630008223932302C0959587956A95E2F7FA0184
:1006400080830895CF93DF9300D0CDB7DEB71A82B1
:1006500041E060E080E00E945E0341E060E080E015
:100660000E94D70360E080E00E94500460E080E0D8
:100670000E945004AE014E5F5F4F60E080E00E9438
:10068000840460E081E00E94B50160E081E00E94A6
:10069000E90160E081E00E941D0260E081E00E94CB
:1006A0005502198260E082E00E948902AE014F5F2C
:1006B0005F4F60E082E00E94C102C9CF813019F132
:1006C00030F08230E1F1833009F455C008954423BD
:1006D00019F0413069F008952AB381E090E002C03A
:1006E000880F991F6A95E2F7809582238ABB089547
:1006F0002AB381E090E002C0880F991F6A95E2F763
:10070000822B8ABB0895442319F0413069F0089583
:1007100027B381E090E002C0880F991F6A95E2F745
:100720008095822387BB089527B381E090E002C0C3
:10073000880F991F6A95E2F7822B87BB089544239F
:1007400019F0413069F0089524B381E090E002C0CF
:10075000880F991F6A95E2F78095822384BB0895DC
:1007600024B381E090E002C0880F991F6A95E2F7F8
:10077000822B84BB0895442319F0413069F0089519
:1007800021B381E090E002C0880F991F6A95E2F7DB
:100790008095822381BB089521B381E090E002C05F
:1007A000880F991F6A95E2F7822B81BB08958130EB
:1007B00019F130F08230E1F1833009F455C0089529
:1007C000442319F0413069F008952BB381E090E0A3
:1007D00002C0880F991F6A95E2F7809582238BBB30
:1007E00008952BB381E090E002C0880F991F6A95AD
:1007F000E2F7822B8BBB0895442319F0413069F056
:10080000089528B381E090E002C0880F991F6A958F
:10081000E2F78095822388BB089528B381E090E0B9
:1008200002C0880F991F6A95E2F7822B88BB089552
:10083000442319F0413069F0089525B381E090E038
:1008400002C0880F991F6A95E2F78095822385BBC5
:10085000089525B381E090E002C0880F991F6A9542
:10086000E2F7822B85BB0895442319F0413069F0EB
:10087000089522B381E090E002C0880F991F6A9525
:10088000E2F78095822382BB089522B381E090E055
:1008900002C0880F991F6A95E2F7822B82BB0895E8
:1008A000813089F028F08230C9F0833011F1089549
:1008B0002BB381E090E002C0880F991F6A95E2F7A0
:1008C00082278BBB089528B381E090E002C0880F97
:1008D000991F6A95E2F7822788BB089525B381E0C6
:1008E00090E002C0880F991F6A95E2F7822785BBC6
:1008F000089522B381E090E002C0880F991F6A95A5
:10090000E2F7822782BB08958130E9F030F082302F
:1009100081F1833009F443C008957BB381E090E016
:100920009C01062E02C0220F331F0A94E2F7872F84
:1009300090E08223932302C0959587956A95E2F70C
:10094000FA018083089578B381E090E09C01062E3F
:1009500002C0220F331F0A94E2F7872F90E0822310
:10096000932302C0959587956A95E2F7FA018083F3
:10097000089575B381E090E09C01062E02C0220F1D
:10098000331F0A94E2F7872F90E08223932302C05B
:10099000959587956A95E2F7FA018083089572B379
:1009A00081E090E09C01062E02C0220F331F0A94C2
:1009B000E2F7872F90E08223932302C095958795D5
:0E09C0006A95E2F7FA0180830895F894FFCF5C
:00000001FF
